:020000040800F2
:10000000D814002001010008B3100008570F0008A1
:10001000B110000833020008D917000800000000E2
:100020000000000000000000000000002115000892
:100030003502000800000000B51000084D16000849
:100040001B0100081B0100081B0100081B01000820
:100050001B0100081B0100081B0100081B01000810
:100060001B0100081B0100081B0100081B01000800
:100070001B0100081B0100081B0100081B010008F0
:100080001B0100081B0100081B0100081B010008E0
:100090001B0100081B0100081B0100081B010008D0
:1000A0001B0100081B0100081B0100081B010008C0
:1000B0001B0100081B0100081B0100081B010008B0
:1000C0001B0100081B0100081B0100081B010008A0
:1000D0001B0100081B0100081B0100081B01000890
:1000E0001B0100081B0100081B010008DFF80CD0F1
:1000F00000F07EF80048004735210008D8140020A1
:100100000648804706480047FEE7FEE7FEE7FEE7B1
:10011000FEE7FEE7FEE7FEE7FEE7FEE7AD160008B6
:10012000ED000008202A04DB203A21FA02F0002129
:10013000704721FA02F3D040C2F1200291400843F7
:100140001946704740EA01039B0703D009E008C93C
:10015000121F08C0042AFAD203E011F8013B00F88C
:10016000013B521EF9D27047D2B201E000F8012BD8
:10017000491EFBD270470022F6E710B513460A4627
:1001800004461946FFF7F0FF204610BD2DE9F05F49
:100190000546002092469B468846064681464024F6
:1001A0001BE02846414647462246FFF7BBFF534621
:1001B0005A46C01A914110D311461846224600F003
:1001C00029F82D1A67EB01084F462246012000212D
:1001D00000F020F817EB00094E41201EA4F10104A5
:1001E000DFDC484631462A464346BDE8F09F000022
:1001F000064C074D06E0E06840F0010394E8070074
:1002000098471034AC42F6D3FFF774FFA4210008DE
:10021000C4210008202A04DB203A00FA02F1002061
:1002200070479140C2F1200320FA03F31943904034
:100230007047FEE77047000038B529486A460178E4
:10024000491C8DF800104178491C8DF80110817807
:10025000491C8DF80210C0780C21401C8DF8030059
:10026000002001F0A3FC00210122084601F05EFC01
:1002700001221146002001F059FC052000F034F85D
:100280000321002001F01CF8132805D010220121C1
:10029000002001F04BFC14E004220121002001F0B9
:1002A00045FC0221002001F00BF8040004D00246B6
:1002B0000221002001F03AFC052000F015F820078B
:1002C00001D5002038BD0621002000F0F9FFFF28ED
:1002D000E7D010220121002001F028FCFF2038BDCA
:1002E0002500002072B6FEE770B5044600F00CF958
:1002F0000546601C02D004480078044400F004F96C
:10030000401BA042FAD370BD040000202DE9F84F35
:10031000DFF8B891002409F1040A0AF1040B23461E
:100320000F270BF1040EC9E00125A5402A40AA427F
:100330007DD1674ED1F804C0ACEB0608B44532D08D
:1003400014DCBCF1030F3AD009DCBCF1000F2AD059
:10035000BCF1010F1CD0BCF1020F31D11DE0BCF18A
:10036000110F17D0BCF1120F2AD119E0B8F5881F70
:1003700019D006DCB8F5803F15D0B8F5801F1FD125
:1003800011E0B8F5001F0ED0B8F5041F18D10AE02F
:10039000CB6815E0CB681B1D12E0CB6808330FE07B
:1003A000CB680C330CE08B682BB1012B4FF00803AA
:1003B00003D0456104E0042302E0056100E000236E
:1003C000FF2A01D8064601E000F104064FEA840541
:1003D00001D9A5F12005D6F8008007FA05FC28EA26
:1003E0000C0803FA05F548EA0508C6F800804D68D0
:1003F000ED0062D5374DAE6946F00106AE61AD69DC
:1004000024F0030605F001050095334D06EB050CBD
:10041000DCF80850A607360F07FA06F825EA0805A3
:10042000DFF8B880404503D14FF0000817E044E002
:10043000DFF8AC80404502D14FF001080FE0DFF853
:10044000A480404502D14FF0020808E0DFF8988010
:10045000404502D14FF0030801E04FF0040808FACC
:1004600006F848EA0508CCF808804D68D9F800601D
:10047000ED034D4601D5164300E096432E604D68CE
:10048000DAF80060AD03554601D5164300E0964307
:100490002E604D68DBF80060ED025D4601D5164325
:1004A00000E096432E604D68DEF80060AD027546B0
:1004B00001D5164300E096432E60641C0D682A4661
:1004C000E5407FF431AFBDE8F88F00000004014043
:1004D000000011100010024000000140000801401F
:1004E000000C01400010014000140140C26821EAE4
:1004F00002030A4043EA0241016170470AB1016107
:1005000070470904FBE7000001488068704700005D
:10051000040000200248816802781144816070471D
:1005200004000020074810B5016841F01001016087
:10053000032000F067F80F2000F006F800F024F820
:10054000002010BD0020024070B50D4D04464FF450
:100550007A712878B1FBF0F00A490968B1FBF0F034
:1005600000F023FC48B9102C07D200222146501E6F
:1005700000F028F800206C6070BD012070BD000004
:1005800004000020100000200C4808B5816941F0EB
:1005900001018161816901F001010091C16941F0AE
:1005A0008051C161C06900F08050009004484168EA
:1005B00021F0E06141F08061416008BD001002401F
:1005C00000000140F0B40E4B1B680C46C3F302233D
:1005D000C3F10705042D00D90425191D072901D2EF
:1005E000002300E0DB1E012606FA05F1491E21402A
:1005F00099409E40761E16403143F0BC01F036BB58
:100600000CED00E0064900F0070208684FF6FF0312
:10061000184040EA0220034A104308607047000077
:100620000CED00E00000FA052DE9F0470F4605004B
:1006300061D0434E306800F00700B84209D23068FC
:1006400020F0070038433060306800F00700B842FF
:1006500051D128683B4C810712D5400703D560680B
:1006600040F4E06060602878000703D5606840F4DB
:10067000605060606068A96820F0F0000843606026
:100680002878C00728D06868012810D0216802287F
:1006900010D0890700292EDA616821F00301014397
:1006A0006160FFF731FF804641F288390DE0216833
:1006B0008903EFE78901EDE7FFF726FFA0EB0801CB
:1006C000494502D90320BDE8F0876068696800F0F9
:1006D0000C00B0EB810FEFD1306800F00700B8429A
:1006E0000BD9306820F0070038433060306800F0E4
:1006F0000700B84201D00120E5E72878400705D57A
:100700006068E96820F4E0600843606028780007CA
:1007100006D56068296920F4605040EAC100606035
:1007200000F038F86168084AC1F30311515CC84011
:100730000649086006480068FFF706FF0020C2E788
:1007400000200240001002408C2100081000002010
:10075000080000200448054900684968044AC1F3BC
:100760000221515CC8407047100000200010024078
:100770009C2100080448054900684968044AC1F3FF
:10078000C221515CC8407047100000200010024098
:100790009C21000812A185B00FC98DE80F0014A09C
:1007A000144A006804905168134801F00C03042BAC
:1007B00010D0082B0ED1C1F38343C9031DF80300E9
:1007C0000AD5516804AAC1F34041515C0A4A50431A
:1007D000B0FBF1F005B0704708494843FAE7000064
:1007E00002030405060708090A0B0C0D0E0F101072
:1007F000010200000010024000127A0000093D00D2
:100800002DE9F84F040070D02078C04DC00749D0C2
:100810006868C0F38100012807D06868C0F38100D0
:10082000022809D16868C00306D52868800339D535
:1008300060680028E7D035E06068B0F5803F0BD0F5
:1008400010B1B0F5A02F11D0286820F480302860B6
:10085000286820F4802002E0286840F48030286076
:10086000606890B1FFF750FE06460AE0286840F441
:1008700080202860F0E700BFFFF746FE801B642859
:1008800073D828688003F7D50CE0FFF73DFE0646D5
:1008900005E000BFFFF738FE801B6428F0D8286809
:1008A0008003F7D420789A4E80074FF001094FF06B
:1008B000000839D5686810F00C0F07D06868C0F3DD
:1008C0008100022809D16868C00306D4286880071F
:1008D00014D52069012808D110E02069B0B1C6F80C
:1008E0000090FFF711FE074605E00AE1FFF70CFE56
:1008F000C01B0228C4D828688007F7D5286861691A
:1009000020F0F80040EAC10028600DE0C6F8008041
:10091000FFF7FAFD074604E0FFF7F6FDC01B0228CB
:1009200023D828688007F7D4207800072CD5794889
:10093000A169D9B1C0F80090FFF7E6FD074604E0D1
:10094000FFF7E2FDC01B02280FD8686A8007F7D5C1
:1009500071484FF4FA510068B0FBF1F0009000BF0D
:100960000098411E0091FAD20EE080E0C0F80080AD
:10097000FFF7CAFD074604E0FFF7C6FDC01B0228CB
:1009800075D8686A8007F7D42078400760D5E86991
:100990000027C00008D4E86940F08050E861E869A9
:1009A000012700F0805000905C480168C90513D40D
:1009B0000168834641F480710160FFF7A5FD82461E
:1009C00006E000BFFFF7A0FDA0EB0A0064284ED8A8
:1009D000DBF80000C005F5D5E06801280AD008B1B1
:1009E000052813D0286A20F001002862286A20F028
:1009F000040002E0286A40F001002862E06841F249
:100A0000883B98B1FFF780FD82460BE0286A40F0F2
:100A100004002862EEE700BFFFF776FDA0EB0A01B5
:100A200059455AD8286A8007F6D50CE0FFF76CFDC7
:100A3000824605E0FFF768FDA0EB0A0159454CD856
:100A4000286A8007F6D41FB1E86920F08050E86179
:100A5000E06988B36968C1F38101022944D00228A2
:100A6000C6F8608004D0FFF74FFD044638E034E05C
:100A7000FFF74AFD074604E0FFF746FDC01B0228CA
:100A80002BD828688001F7D4206AB0F5803F05D1C3
:100A90006868A16820F4003008436860D4E9080160
:100AA0000843696821F4741108436860C6F86090CF
:100AB000FFF72AFD044606E025E000BFFFF724FD0E
:100AC000001B022809D828688001F7D51BE000BF69
:100AD000FFF71AFD001B022802D90320BDE8F88F9A
:100AE00028688001F4D40EE00128F7D06868226AF3
:100AF00000F48031914204D1616A00F470108842A0
:100B000001D00120EAE70020E8E7000000100240E1
:100B10000000424280044242100000200070004069
:100B200070B5040009D0606A002540B12561656197
:100B3000A56294F8510040B10CE0012070BD6068DE
:100B4000B0F5827FF4D0E561F2E784F8505020469A
:100B500000F040F8022084F851002068016821F07C
:100B600040010160A088218900F4827001F40441F1
:100B70000843A18901F400610843217C01F00201CE
:100B80000843217D01F001010843218B01F400712C
:100B90000843217F01F03801084394F8201001F048
:100BA00080010843218D01F4005108432168086049
:100BB000A069042101EA1040216848602068C169E9
:100BC00021F40061C1616565012084F851000020B5
:100BD00070BD000030B585B00024009401940294EB
:100BE000039400681449884223D11448816941F470
:100BF00080518161816901F480510491816941F0E2
:100C00000401816180690E4D00F004000490A02071
:100C10000090022001900320039069462846FFF7C8
:100C200075FB4020CDE90004694628460294FFF791
:100C30006DFB05B030BD00000030014000100240E7
:100C4000000801402DE9F84F044690F850000027B5
:100C50001D461646894601280DD04FF0010B84F839
:100C600050B0FFF751FC804694F85100BA46012875
:100C700004D0022793E00220BDE8F88FB9F1000FFD
:100C800073D0002E71D0032084F85100C4F854A012
:100C9000C4F83090A686E686C4F838A0A4F83CA034
:100CA000A4F83EA0C4F844A0C4F840A0A068B0F5E1
:100CB000004F09D12068016821F0400101602068DF
:100CC000016841F48041016020680168490603D44D
:100CD000016841F040010160E068B0F5006F6068B4
:100CE00003D030B3012E24D041E008B1012E1CD135
:100CF000206B21680088C86006E020688168890749
:100D000009D5216B0988C160206B801C2063E08EAF
:100D1000401EE08609E0FFF7F7FBA0EB0800A842C1
:100D200002D3681C01D031E07DB3E08E0028E4D10D
:100D300020E0206B21680078087306E02068816855
:100D4000890709D5216B09780173206B401C20634A
:100D5000E08E401EE0860AE0FFF7D6FBA0EB08001D
:100D6000A84203D3681C02D010E017E06DB1E08EFA
:100D70000028E3D142462946204600F065FB08B131
:100D800020206065A06818B106E0FFE7032706E0B1
:100D90002068C16880680090606D00B1012784F808
:100DA00051B084F850A0384666E710B5401EB0F147
:100DB000807F01D3012010BD4FF0E02460610F213E
:100DC000601700F053FF0020A06107202061002081
:100DD00010BD70B5040004D094F83D00002510B19A
:100DE00006E0012070BD84F83C50204600F022F857
:100DF000242084F83D002068C16821F40051C160BE
:100E0000204600F05BFC2068016921F490410161FB
:100E10002068416921F02A0141612068C16841F4DC
:100E20000051C1602564202084F83D0084F83E0014
:100E3000002070BD30B585B0002400940194029468
:100E4000039400681449884224D11448816941F40C
:100E500080418161816901F480410491816941F09F
:100E60000401816180690E4D00F0040004904FF48C
:100E700000700090022001900320039069462846EC
:100E8000FFF744FA2815CDE9000469462846029484
:100E9000FFF73CFA05B030BD0038014000100240B9
:100EA000000801402DE9F843044690F83D001F4634
:100EB00016460D4620284CD1C5B1BEB194F83C0071
:100EC000012846D0012084F83C004FF00008C4F807
:100ED0004080212084F83D00FFF716FBA684814660
:100EE000E684A068B0F5805F03D004E00120BDE88F
:100EF000F883206928B12E465FF0000584F83C8015
:100F00000EE00026FAE78021204600F033FCA0B96D
:100F1000AEB116F8010B21684860E08C401EE084F9
:100F2000E08C4B464FF0000200970028EBD14FF0C9
:100F30004001204600F01EFC30B10320D7E735F811
:100F4000020BC0F30800E6E7202084F83D000020F3
:100F5000CDE70220CBE7FEE730B51448C024A82334
:100F60000470437001218170C1701148FF220C256B
:100F70000270427082700022C2700E4805702925EE
:100F80004570AB2585707C25C570027141710A489A
:100F9000047043708170C721C1700848132101702B
:100FA000882141700648027030BD00001D000020FD
:100FB0002100002031000020250000201700002023
:100FC0001400002070B586B00024184800940194E5
:100FD00002940394816941F010018161816901F0FB
:100FE00010010491816941F020018161816901F062
:100FF00020010491816941F00401816180690C4EF6
:1010000000F004004FF400550490002229463046B9
:10101000FFF774FA01200095CDE901040220039046
:1010200069463046FFF772F906B070BD0010024005
:10103000001001400F4810B50D4901604FF4827156
:10104000416000218160C1604FF400720161C0E91C
:101050000512C1610162416281620A21C162FFF72A
:101060005FFD002803D0BDE81040FFF73BB910BD7D
:10107000003001403C0000200C4810B50A490160D6
:101080004FF4E1314160002181600C22C160C0E970
:1010900004128161C161FFF79CFE002803D0BDE806
:1010A0001040FFF71FB910BD003801409400002028
:1010B000FEE7FEE770470000FEB523A30B250ECB2D
:1010C0008DE80E00234900F04FF8074602462149FB
:1010D0002148FFF737F800261F4C04E0A15D1FA050
:1010E00000F0B4FD761CBE42F8DB20788DF80000DD
:1010F00060788DF8010000208DF802008DF8030063
:101100008DF8040005208DF80500A0798DF8060003
:10111000E0798DF80700134C02208DF80800208834
:101120008DF80A00000A8DF809002A4669460A4827
:10113000FFF708F82A460849002000F03FFC208805
:10114000401C2080FEBD00000000000000050103DF
:1011500002007000D8000020D80800203078253028
:1011600032582000000000202DE9F35F0D462621B3
:10117000009800F0CBF8041E79D040F2B4508442BD
:1011800000D904462821009800F0C0F8DFF8E4B048
:101190008146C0F30A06002210215846FFF7AEF937
:1011A000304600F0EDF80098182101EB401A0AF0E3
:1011B000FF0000F0DBF8DFF8C080D8F80000C0685E
:1011C0003019B0F5006F0ED2002609E0002000F0C3
:1011D000CDF8D8F80000C068761C05F8010BB6B24F
:1011E000A642F3D331E0C6F50067002609E00020EF
:1011F00000F0BCF8D8F80000C068761C05F8010BB8
:10120000B6B2BE42F3D3012210215F465846FFF723
:1012100075F9002210213846FFF770F9002000F020
:10122000AFF80AF0FF0000F0A1F8D8F80000474638
:10123000C06808E0002000F099F83868C068761CA3
:1012400005F8010BB6B2A642F4D30122102158468C
:10125000FFF754F909EB040082B22821009800F04E
:1012600085FC40220121009800F060FC2046BDE88A
:10127000FC9F0000000801403C00002070B50E4DAE
:101280000446002210212846FFF738F9204600F0D6
:1012900077F8012000F06AF8084C2068C068002048
:1012A00000F064F82068C0680122C4B2102128460A
:1012B000FFF724F9204670BD000801403C000020E3
:1012C00070B5104D0E460446002210212846FFF747
:1012D00015F9304600F054F8092000EB4410C0B274
:1012E00000F044F8084C2068C068002000F03EF888
:1012F0002068C0680122C4B210212846FFF7FEF81A
:10130000204670BD000801403C00002070B5154E1D
:101310000D460446002210213046FFF7EFF828461C
:1013200000F02EF80A2000EB4410C0B200F01EF8C6
:101330000D4C2068C068002000F018F82068C568CF
:10134000002000F013F821684FF6FF7000EA052036
:10135000C9680122084484B210213046FFF7CEF854
:10136000204670BD000801403C00002001B5FF236D
:10137000012269460148FFF765FC08BD3C000020DA
:1013800010B50446000AFFF7F1FFE0B2BDE81040D7
:10139000FFF7ECBF30B5284885B0816941F0040102
:1013A0008161816901F004010491816941F48051F6
:1013B0008161816901F480510491816941F00101E9
:1013C000816180691D4D00F001000490E0200090D3
:1013D000022003240190039469462846FEF796FFF5
:1013E0000122E0212846FFF789F810200090012013
:1013F0000190039469462846FEF788FF01220821E0
:101400002846FFF77BF80F480D494FF482720160C0
:101410000021C0E90121C1606A150161C0E905121E
:10142000C16101620721C162FFF77AFB002801D088
:10143000FEF758FF05B030BD001002400008014023
:10144000003001403C00002038B50B4600920446B5
:101450000022802100F008F8002804D0606D40F0E0
:1014600020006065032038BD2DE9F8431E469146F3
:1014700088460446089DFFF747F8401B351AFFF7DA
:1014800043F8074625480068C0F3CB30684338E08E
:10149000701C37D0FFF738F8C01BA84203D215B133
:1014A000009860B32CE02068416821F0E0014160C1
:1014B0006068B0F5827F0BD1A068B0F5004F02D014
:1014C000B0F5806F04D12068016821F0400101600F
:1014D000A06AB0F5005F09D12068016821F40051CD
:1014E00001602068016841F400510160012084F826
:1014F0005100002084F850000320BDE8F883002547
:10150000401E00902068816838EA010004D0002164
:101510004945BDD10020F0E70121F9E71000002086
:10152000704710B504460122002100F0FFFA0122A5
:101530001146204600F0FAFA0520FEF7D5FE0321F9
:101540002046FFF7BDFE132806D0102201212046B9
:1015500000F0ECFA002010BD04220121204600F02A
:10156000E5FAFF2010BD000010B5044640F2B45269
:101570001221002000F0FAFA002C1CD80E48417805
:10158000007801EB002082B20421002000F0EEFA86
:101590000948801C4178007801EB002082B21021BC
:1015A000002000F0E3FA044A0C211232BDE810409A
:1015B000002000F0FBBA10BD1700002010B5044653
:1015C0000122002100F0B2FA01221146204600F06B
:1015D000ADFA0520FEF788FE03212046FFF770FED6
:1015E00013280DD102220121204600F09FFA052088
:1015F000FEF77AFE03212046FFF762FE142806D08C
:1016000010220121204600F091FA002010BDFF2099
:1016100010BD10B504460222002100F087FA012215
:101620001146204600F082FA0520FEF75DFE0321F8
:101630002046FFF745FE222806D010220121204631
:1016400000F074FA002010BDFF2010BDFEF762BF4D
:1016500030B58FB028216846FEF78DFD14210AA809
:10166000FEF789FD022501200490009510200590C9
:1016700000244FF4C010CDE9084007956846FFF7F5
:10168000BFF808B172B6FEE70F20CDE90A054FF4A6
:101690008060CDE90C4001210AA80E94FEF7C4FF3A
:1016A000002801D072B6FEE70FB030BD704710B50C
:1016B000FFF770FEBDE8104000F090B870B504462A
:1016C00000680169E26821F4405111430161216918
:1016D000A0680843616908432168CA6841F20C6345
:1016E0009A430243CA6020684169A26921F44071AB
:1016F000114341611E492068884202D1FFF73AF840
:1017000001E0FFF727F800EBC00101EB0012606871
:1017100064218000B2FBF0F3B3FBF1F36FF0180625
:101720007343B2FBF0F5B2FBF0F605EB8305322311
:1017300003EB0515B5FBF1F5B6FBF1F605F0F00589
:1017400005EB0615B2FBF0F6B2FBF0F0B0FBF1F0E2
:101750006FF01802504306EB800003EB0010B0FB63
:10176000F1F0216800F00F002844886070BD00008F
:10177000003801402DE9F041984617460E460446D0
:10178000069D1DE0681C1BD02DB1FEF7BDFEA0EB31
:101790000800A84214D92068C16821F4D071C16042
:1017A0002068416921F001014161202084F83D0059
:1017B00084F83E00002084F83C000320BDE8F0815E
:1017C0002068006836EA000004D00020B842D9D072
:1017D0000020F3E70120F9E7FEE7000010B586B02E
:1017E000082000900220039001200B4C01906946D4
:1017F0002046FEF78BFD002208212046FEF77EFEE4
:101800000648816941F010018161806900F0100093
:10181000049006B010BD0000000801400010024016
:1018200010B50B4C002208212046FEF767FE32203F
:10183000FEF75AFD012208212046FEF75FFEC82070
:10184000FEF752FD2E20FFF719FDC007FAD010BD9C
:101850000008014010B500248021204600F02EF938
:101860000A20FEF741FD04221749012000F0C8F9C3
:1018700015490422091D052000F0C2F9124906226B
:101880001431092000F0BCF90F49042208310F205F
:1018900000F0B6F9E0B202221E2100F047F9E0B2F2
:1018A00002221F2100F042F9641CA4B2082CF1D3DB
:1018B0004FF4FA61192000F01DF90821BDE810402D
:1018C0001B2000F0FBB800001D00002010B5FFF742
:1018D000C1FFFEF7B1FCBDE810400020FFF744BE99
:1018E0002DE9F041214C4FF4FA7700261720FFF73D
:1018F000C5FC05463846FEF7F7FCE8072ED0022166
:101900000020FFF7DDFC054602460221002000F022
:101910000DF9E80703D0207840F002002070A807F6
:1019200008D510220121002000F000F90020FFF767
:101930001BFE2670E80603D5607840F00200607058
:10194000680703D5607840F001006070280705D56E
:1019500010220121002000F0E9F826701720FFF77F
:101960008DFC0028C2D1BDE8F081000015000020E8
:1019700070B5104C2078002811D10F4800250126A1
:10198000007838B1012828460CD0FFF742FEFF2826
:101990000DD005E00020FFF711FE05E0267070BDB8
:1019A000257070BDFFF7BDFDFF28F9D1F6E70320D4
:1019B000207070BD15000020140000202DE9F05F9C
:1019C0000C46164683460021FFF77AFC394A0C2163
:1019D000584600F0EBF8374812384178007801EBB0
:1019E000002082B21021584600F0C0F82421584649
:1019F000FFF78CFCDFF8C0A08046C0F30A05002288
:101A000010215046FEF77AFD2846FFF7B9FC142155
:101A100001EB4B1909F0FF00FFF7A8FCA819B0F57E
:101A2000006F0AD2002505E014F8010BFFF79EFCB9
:101A30006D1CADB2B542F7D328E0C5F500670025AF
:101A400006E000BF14F8010BFFF790FC6D1CADB26F
:101A5000BD42F7D30122102157465046FEF74EFDF6
:101A6000002210213846FEF749FD0020FFF788FCD0
:101A700009F0FF00FFF77AFC06E000BF14F8010B45
:101A8000FFF774FC6D1CADB2B542F7D301221021F3
:101A90005046FEF733FD08EB060082B2242158467B
:101AA00000F064F85846BDE8F05F2022012100F004
:101AB0003DB800002D0000200008014070B50C4C1E
:101AC0000E460546002210212046FEF717FD284647
:101AD000FFF756FC0520FFF749FC3046FFF746FCB0
:101AE0002046BDE8704001221021FEF707BD00002E
:101AF0000008014070B50C4C0E460546002210212E
:101B00002046FEF7FBFC2846FFF73AFC0620FFF7CD
:101B10002DFC3046FFF734FC2046BDE87040012222
:101B20001021FEF7EBBC0000000801402DE9F04158
:101B30000D4D16460F460446002210212846FEF79A
:101B4000DDFC3846FFF71CFC0D2000EB4410C0B252
:101B5000FFF70CFC3046FFF709FC2846BDE8F041D2
:101B600001221021FEF7CABC000801402DE9F04116
:101B70000D4D16460F460446002210212846FEF75A
:101B8000BDFC3846FFF7FCFB0E2000EB4410C0B252
:101B9000FFF7ECFB3046FFF7F3FB2846BDE8F041CA
:101BA00001221021FEF7AABC000801402DE9F041F6
:101BB000124D14460F460646002210212846FEF715
:101BC0009DFC3846FFF7DCFB0F2000EB4610C0B24F
:101BD000FFF7CCFB2078FFF7C9FB6078FFF7C6FB67
:101BE000A078FFF7C3FBE078FFF7C0FB2846BDE80D
:101BF000F04101221021FEF781BC000000080140E5
:101C00002DE9F041104F16460D46044600221021E2
:101C10003846FEF773FC2046FFF7B2FB0420FFF7BF
:101C2000A5FB002406E000BF15F8010BFFF79EFBA3
:101C3000641CA4B2B442F7D33846BDE8F041012297
:101C40001021FEF75BBC0000000801400FB4054BFB
:101C500010B503A9044A029800F028F810BC5DF8FA
:101C600014FB000011210008380000200907090EAC
:101C7000002804DB00F1E02080F80014704700F039
:101C80000F0000F1E02080F8141D704702E008C842
:101C9000121F08C1002AFAD170477047002001E0E6
:101CA00001C1121F002AFBD1704700002DE9FF4F30
:101CB0008DB00F460546002606E025280BD0DDE94D
:101CC0000F1290476D1C761C28780028F5D111B0B2
:101CD0003046BDE8F08F0024A246A1460122EC491F
:101CE00000E0044315F8013F203B02FA03F00842EC
:101CF000F7D128782A2810D06FF02F022878A0F189
:101D00003001092914D80AEB8A0102EB410144F0A1
:101D1000020400EB010A6D1CF0E701CF5FEA000A44
:101D200003D544F40054CAF1000A44F002046D1CC7
:101D300028782E2817D115F8010F44F004042A281A
:101D40000ED06FF02F022878A0F1300109290AD8AF
:101D500009EB890102EB410100EB01096D1CF2E77F
:101D600057F8049B6D1C28786C280FD006DC4C2893
:101D700017D068280DD06A2814D104E0742810D038
:101D80007A280FD10DE044F400140AE044F48014E2
:101D900001E044F440146978814202D104F58014D2
:101DA0006D1C6D1C2A786E2A1FD00CDC632A31D082
:101DB00004DC002A8BD0582A11D1A3E0642A68D011
:101DC000692A0CD165E0732A2ED004DC6F2A73D007
:101DD000702A04D19BE0752A6FD0782A6ED0104605
:101DE000DDE90F129047761C50E1C4F3025002283F
:101DF00006D0032809D0042801CF09D0066045E1A8
:101E000001CFF117C0E9006140E101CF06803DE15B
:101E100006703BE117F8040B8DF8000000208DF8E8
:101E20000100EB46012003E057F804BB4FF0FF3000
:101E300061074FF0000102D40DE008F1010188466E
:101E400049450FDA8045F8DB1BF808100029F4D16A
:101E500008E008F1010188468142FADB1BF808100E
:101E60000029F6D1DDE90F23AAEB080081462146BF
:101E700000F036F9304400EB080604E0DDE90F120B
:101E80001BF8010B9047B8F10108F7D221464846EC
:101E9000F7E00A21C4F302534FF0000B0891022B24
:101EA00004D001CFC117032B09D00AE0FF1D27F092
:101EB0000707F7E8020108E032E01FE020E000B287
:101EC000C117042B01D140B2C117031E71F10003E9
:101ED00007DA4FF0000CD0EB0C006CEB01012D2366
:101EE00002E0230504D52B238DF82430012303E0E1
:101EF000E30701D02023F7E7984658E00A2110E0D5
:101F000010210EE010204FF0000B08900CE0102183
:101F10004FF0000B44F004044FF00809089103E06F
:101F200008214FF0000B0891C4F30253022B04D098
:101F300001CF0021032B06D006E0FF1D27F0070785
:101F4000F7E8020103E080B2042B00D1C0B24FF0E9
:101F5000000823072BD5702A07D0DDF820C08CF0AD
:101F6000100C5CEA0B0C05D00EE040238DF82430F9
:101F7000012308E050EA010306D030238DF8243015
:101F80008DF8252002239846DDF820C08CF0080C3F
:101F90005CEA0B0C0BD150EA010301D1630706D5B3
:101FA00030238DF824304FF00108A9F10109582A97
:101FB00004D038A20B9208AA0A920BE03AA2F9E7E1
:101FC0005B46089AFEF7E2F80B9B9B5C0A9A521E4E
:101FD0000A92137050EA0102F2D10A98ADEB0000A8
:101FE00000F1200B600702D524F4803401E04FF0AB
:101FF0000109D94502DDA9EB0B0000E0002000EB50
:102000000B0141440890AAEB010AE00306D4DDE984
:102010000F232146504600F063F806444FF00009B4
:1020200008E009A911F80900DDE90F12904709F14C
:102030000109761CC145F4DBE0030CD5DDE90F2373
:102040002146504600F04CF8064404E0DDE90F124A
:1020500030209047761C0899481E08900029F5DC2E
:1020600008E00A980A990078491C0A91DDE90F12E4
:102070009047761CBBF10001ABF1010BF1DC21466E
:102080005046DDE90F2300F019F806446D1C1BE6ED
:10209000092801003031323334353637383961623E
:1020A0006364656600000000303132333435363702
:1020B0003839414243444546000000002DE9F041D3
:1020C000044600251E461746880404D405E0394618
:1020D0002020B0476D1C641EF9D52846BDE8F0816C
:1020E0002DE9F041044600251E469046C80301D55F
:1020F000302700E02027880404D505E04146384613
:10210000B0476D1C641EF9D52846BDE8F08100007B
:1021100013B54FF6FF73012269460548FEF7C2FE6C
:10212000034800680168C9434906FBD400981CBDF8
:1021300094000020FEF7F6F9FFF78AFAFEF742FF57
:10214000FEF778FFFEF798FFFFF7B1FAFEF704FFFE
:10215000FFF766FBFFF7BAFB0A4C4FF400550A4E37
:10216000FFF706FCFFF7BCFB2278D00705D022F072
:10217000010020700020FEF79FFF29463046FEF741
:10218000B5F9EDE716000020001001400000000046
:102190000000000001020304060708090000000017
:1021A00001020304C4210008000000203C000000DC
:1021B0008C1C0008002200083C0000209C14000039
:1021C0009C1C00080000000001000000100000003E
:1021D000000000000024F4000300000000000000E4
:1021E00000000000000000000000000000000000EF
:1021F00000000000000000000000000000000000DF
:04000005080000ED02
:00000001FF
